{
  "address": "0xeC45801b5A9d566109BFB7e400D240cB9Ec7d5A1",
  "abi": [
    {
      "inputs": [],
      "stateMutability": "nonpayable",
      "type": "constructor"
    },
    {
      "inputs": [],
      "name": "InvalidShortString",
      "type": "error"
    },
    {
      "inputs": [
        {
          "internalType": "string",
          "name": "str",
          "type": "string"
        }
      ],
      "name": "StringTooLong",
      "type": "error"
    },
    {
      "anonymous": false,
      "inputs": [
        {
          "indexed": true,
          "internalType": "address",
          "name": "account",
          "type": "address"
        },
        {
          "indexed": true,
          "internalType": "address",
          "name": "operator",
          "type": "address"
        },
        {
          "indexed": false,
          "internalType": "bool",
          "name": "approved",
          "type": "bool"
        }
      ],
      "name": "ApprovalForAll",
      "type": "event"
    },
    {
      "anonymous": false,
      "inputs": [],
      "name": "EIP712DomainChanged",
      "type": "event"
    },
    {
      "anonymous": false,
      "inputs": [
        {
          "indexed": true,
          "internalType": "address",
          "name": "previousOwner",
          "type": "address"
        },
        {
          "indexed": true,
          "internalType": "address",
          "name": "newOwner",
          "type": "address"
        }
      ],
      "name": "OwnershipTransferred",
      "type": "event"
    },
    {
      "anonymous": false,
      "inputs": [
        {
          "indexed": false,
          "internalType": "address",
          "name": "account",
          "type": "address"
        }
      ],
      "name": "Paused",
      "type": "event"
    },
    {
      "anonymous": false,
      "inputs": [
        {
          "indexed": true,
          "internalType": "address",
          "name": "operator",
          "type": "address"
        },
        {
          "indexed": true,
          "internalType": "address",
          "name": "from",
          "type": "address"
        },
        {
          "indexed": true,
          "internalType": "address",
          "name": "to",
          "type": "address"
        },
        {
          "indexed": false,
          "internalType": "uint256[]",
          "name": "ids",
          "type": "uint256[]"
        },
        {
          "indexed": false,
          "internalType": "uint256[]",
          "name": "values",
          "type": "uint256[]"
        }
      ],
      "name": "TransferBatch",
      "type": "event"
    },
    {
      "anonymous": false,
      "inputs": [
        {
          "indexed": true,
          "internalType": "address",
          "name": "operator",
          "type": "address"
        },
        {
          "indexed": true,
          "internalType": "address",
          "name": "from",
          "type": "address"
        },
        {
          "indexed": true,
          "internalType": "address",
          "name": "to",
          "type": "address"
        },
        {
          "indexed": false,
          "internalType": "uint256",
          "name": "id",
          "type": "uint256"
        },
        {
          "indexed": false,
          "internalType": "uint256",
          "name": "value",
          "type": "uint256"
        }
      ],
      "name": "TransferSingle",
      "type": "event"
    },
    {
      "anonymous": false,
      "inputs": [
        {
          "indexed": false,
          "internalType": "string",
          "name": "value",
          "type": "string"
        },
        {
          "indexed": true,
          "internalType": "uint256",
          "name": "id",
          "type": "uint256"
        }
      ],
      "name": "URI",
      "type": "event"
    },
    {
      "anonymous": false,
      "inputs": [
        {
          "indexed": false,
          "internalType": "address",
          "name": "account",
          "type": "address"
        }
      ],
      "name": "Unpaused",
      "type": "event"
    },
    {
      "inputs": [
        {
          "internalType": "address",
          "name": "account",
          "type": "address"
        },
        {
          "internalType": "uint256",
          "name": "id",
          "type": "uint256"
        }
      ],
      "name": "balanceOf",
      "outputs": [
        {
          "internalType": "uint256",
          "name": "",
          "type": "uint256"
        }
      ],
      "stateMutability": "view",
      "type": "function"
    },
    {
      "inputs": [
        {
          "internalType": "address[]",
          "name": "accounts",
          "type": "address[]"
        },
        {
          "internalType": "uint256[]",
          "name": "ids",
          "type": "uint256[]"
        }
      ],
      "name": "balanceOfBatch",
      "outputs": [
        {
          "internalType": "uint256[]",
          "name": "",
          "type": "uint256[]"
        }
      ],
      "stateMutability": "view",
      "type": "function"
    },
    {
      "inputs": [
        {
          "internalType": "address",
          "name": "account",
          "type": "address"
        },
        {
          "internalType": "uint256",
          "name": "id",
          "type": "uint256"
        },
        {
          "internalType": "uint256",
          "name": "value",
          "type": "uint256"
        }
      ],
      "name": "burn",
      "outputs": [],
      "stateMutability": "nonpayable",
      "type": "function"
    },
    {
      "inputs": [
        {
          "internalType": "address",
          "name": "account",
          "type": "address"
        },
        {
          "internalType": "uint256[]",
          "name": "ids",
          "type": "uint256[]"
        },
        {
          "internalType": "uint256[]",
          "name": "values",
          "type": "uint256[]"
        }
      ],
      "name": "burnBatch",
      "outputs": [],
      "stateMutability": "nonpayable",
      "type": "function"
    },
    {
      "inputs": [
        {
          "internalType": "string",
          "name": "order_id",
          "type": "string"
        }
      ],
      "name": "cancelOrder",
      "outputs": [],
      "stateMutability": "nonpayable",
      "type": "function"
    },
    {
      "inputs": [
        {
          "internalType": "string",
          "name": "order_id",
          "type": "string"
        },
        {
          "internalType": "uint256",
          "name": "amount",
          "type": "uint256"
        },
        {
          "internalType": "address",
          "name": "merchant_address",
          "type": "address"
        }
      ],
      "name": "createOrder",
      "outputs": [],
      "stateMutability": "nonpayable",
      "type": "function"
    },
    {
      "inputs": [],
      "name": "eip712Domain",
      "outputs": [
        {
          "internalType": "bytes1",
          "name": "fields",
          "type": "bytes1"
        },
        {
          "internalType": "string",
          "name": "name",
          "type": "string"
        },
        {
          "internalType": "string",
          "name": "version",
          "type": "string"
        },
        {
          "internalType": "uint256",
          "name": "chainId",
          "type": "uint256"
        },
        {
          "internalType": "address",
          "name": "verifyingContract",
          "type": "address"
        },
        {
          "internalType": "bytes32",
          "name": "salt",
          "type": "bytes32"
        },
        {
          "internalType": "uint256[]",
          "name": "extensions",
          "type": "uint256[]"
        }
      ],
      "stateMutability": "view",
      "type": "function"
    },
    {
      "inputs": [
        {
          "internalType": "uint256",
          "name": "id",
          "type": "uint256"
        }
      ],
      "name": "exists",
      "outputs": [
        {
          "internalType": "bool",
          "name": "",
          "type": "bool"
        }
      ],
      "stateMutability": "view",
      "type": "function"
    },
    {
      "inputs": [
        {
          "internalType": "address",
          "name": "account",
          "type": "address"
        },
        {
          "internalType": "address",
          "name": "operator",
          "type": "address"
        }
      ],
      "name": "isApprovedForAll",
      "outputs": [
        {
          "internalType": "bool",
          "name": "",
          "type": "bool"
        }
      ],
      "stateMutability": "view",
      "type": "function"
    },
    {
      "inputs": [
        {
          "internalType": "address",
          "name": "account",
          "type": "address"
        },
        {
          "internalType": "uint256",
          "name": "id",
          "type": "uint256"
        },
        {
          "internalType": "uint256",
          "name": "amount",
          "type": "uint256"
        },
        {
          "internalType": "bytes",
          "name": "data",
          "type": "bytes"
        }
      ],
      "name": "mint",
      "outputs": [],
      "stateMutability": "nonpayable",
      "type": "function"
    },
    {
      "inputs": [
        {
          "internalType": "address",
          "name": "to",
          "type": "address"
        },
        {
          "internalType": "uint256[]",
          "name": "ids",
          "type": "uint256[]"
        },
        {
          "internalType": "uint256[]",
          "name": "amounts",
          "type": "uint256[]"
        },
        {
          "internalType": "bytes",
          "name": "data",
          "type": "bytes"
        }
      ],
      "name": "mintBatch",
      "outputs": [],
      "stateMutability": "nonpayable",
      "type": "function"
    },
    {
      "inputs": [],
      "name": "owner",
      "outputs": [
        {
          "internalType": "address",
          "name": "",
          "type": "address"
        }
      ],
      "stateMutability": "view",
      "type": "function"
    },
    {
      "inputs": [],
      "name": "pause",
      "outputs": [],
      "stateMutability": "nonpayable",
      "type": "function"
    },
    {
      "inputs": [],
      "name": "paused",
      "outputs": [
        {
          "internalType": "bool",
          "name": "",
          "type": "bool"
        }
      ],
      "stateMutability": "view",
      "type": "function"
    },
    {
      "inputs": [
        {
          "components": [
            {
              "internalType": "address",
              "name": "from",
              "type": "address"
            },
            {
              "internalType": "string",
              "name": "order_id",
              "type": "string"
            }
          ],
          "internalType": "struct Escrow.OrderRedeemRequest",
          "name": "req",
          "type": "tuple"
        },
        {
          "internalType": "bytes",
          "name": "signature",
          "type": "bytes"
        }
      ],
      "name": "redeem",
      "outputs": [],
      "stateMutability": "nonpayable",
      "type": "function"
    },
    {
      "inputs": [],
      "name": "renounceOwnership",
      "outputs": [],
      "stateMutability": "nonpayable",
      "type": "function"
    },
    {
      "inputs": [
        {
          "internalType": "address",
          "name": "from",
          "type": "address"
        },
        {
          "internalType": "address",
          "name": "to",
          "type": "address"
        },
        {
          "internalType": "uint256[]",
          "name": "ids",
          "type": "uint256[]"
        },
        {
          "internalType": "uint256[]",
          "name": "amounts",
          "type": "uint256[]"
        },
        {
          "internalType": "bytes",
          "name": "data",
          "type": "bytes"
        }
      ],
      "name": "safeBatchTransferFrom",
      "outputs": [],
      "stateMutability": "nonpayable",
      "type": "function"
    },
    {
      "inputs": [
        {
          "internalType": "address",
          "name": "from",
          "type": "address"
        },
        {
          "internalType": "address",
          "name": "to",
          "type": "address"
        },
        {
          "internalType": "uint256",
          "name": "id",
          "type": "uint256"
        },
        {
          "internalType": "uint256",
          "name": "amount",
          "type": "uint256"
        },
        {
          "internalType": "bytes",
          "name": "data",
          "type": "bytes"
        }
      ],
      "name": "safeTransferFrom",
      "outputs": [],
      "stateMutability": "nonpayable",
      "type": "function"
    },
    {
      "inputs": [
        {
          "internalType": "address",
          "name": "operator",
          "type": "address"
        },
        {
          "internalType": "bool",
          "name": "approved",
          "type": "bool"
        }
      ],
      "name": "setApprovalForAll",
      "outputs": [],
      "stateMutability": "nonpayable",
      "type": "function"
    },
    {
      "inputs": [
        {
          "internalType": "string",
          "name": "baseUri",
          "type": "string"
        }
      ],
      "name": "setURI",
      "outputs": [],
      "stateMutability": "nonpayable",
      "type": "function"
    },
    {
      "inputs": [
        {
          "internalType": "bytes4",
          "name": "interfaceId",
          "type": "bytes4"
        }
      ],
      "name": "supportsInterface",
      "outputs": [
        {
          "internalType": "bool",
          "name": "",
          "type": "bool"
        }
      ],
      "stateMutability": "view",
      "type": "function"
    },
    {
      "inputs": [
        {
          "internalType": "uint256",
          "name": "id",
          "type": "uint256"
        }
      ],
      "name": "totalSupply",
      "outputs": [
        {
          "internalType": "uint256",
          "name": "",
          "type": "uint256"
        }
      ],
      "stateMutability": "view",
      "type": "function"
    },
    {
      "inputs": [
        {
          "internalType": "address",
          "name": "newOwner",
          "type": "address"
        }
      ],
      "name": "transferOwnership",
      "outputs": [],
      "stateMutability": "nonpayable",
      "type": "function"
    },
    {
      "inputs": [],
      "name": "unpause",
      "outputs": [],
      "stateMutability": "nonpayable",
      "type": "function"
    },
    {
      "inputs": [
        {
          "internalType": "uint256",
          "name": "token_id",
          "type": "uint256"
        }
      ],
      "name": "uri",
      "outputs": [
        {
          "internalType": "string",
          "name": "",
          "type": "string"
        }
      ],
      "stateMutability": "view",
      "type": "function"
    },
    {
      "inputs": [
        {
          "components": [
            {
              "internalType": "address",
              "name": "from",
              "type": "address"
            },
            {
              "internalType": "string",
              "name": "order_id",
              "type": "string"
            }
          ],
          "internalType": "struct Escrow.OrderRedeemRequest",
          "name": "req",
          "type": "tuple"
        },
        {
          "internalType": "bytes",
          "name": "signature",
          "type": "bytes"
        }
      ],
      "name": "verify",
      "outputs": [
        {
          "internalType": "bool",
          "name": "",
          "type": "bool"
        }
      ],
      "stateMutability": "view",
      "type": "function"
    }
  ],
  "transactionHash": "0xd898d59db5b0e38716fee7b7b07d8698ad76b4fbc9083a1f2d7a316c6fde5a42",
  "args": [],
  "numDeployments": 2,
  "solcInputHash": "197492f2d8a3e2dfd837939348b8a153",
  "bytecode": "0x6101e0604052604c61016081815290620034b86101803980516200002c9160079160209091019062000295565b503480156200003a57600080fd5b5060405180604001604052806006815260200165457363726f7760d01b81525060405180604001604052806005815260200164302e302e3160d81b8152506040518060200160405280600081525062000099816200018760201b60201c565b50620000b5600383620001a060201b62000c291790919060201c565b61012052620000d2816004620001a0602090811b62000c2917901c565b61014052815160208084019190912060e052815190820120610100524660a0526200016060e05161010051604080517f8b73c3c69bb8fe3d512ecc4cf759cc79239f7b179b0ffacaa9a75d522b39400f60208201529081019290925260608201524660808201523060a082015260009060c00160405160208183030381529060405280519060200120905090565b60805250503060c0526200017433620001f4565b6005805460ff60a01b19169055620003f2565b80516200019c90600290602084019062000295565b5050565b6000602083511015620001c057620001b88362000246565b9050620001ee565b82620001d7836200029260201b62000c601760201c565b8151620001e8926020019062000295565b5060ff90505b92915050565b600580546001600160a01b038381166001600160a01b0319831681179093556040519116919082907f8be0079c531659141344cd1fd0a4f28419497f9722a3daafe3b4186f6b6457e090600090a35050565b600080829050601f815111156200027d578260405163305a27a960e01b81526004016200027491906200033b565b60405180910390fd5b80516200028a8262000393565b179392505050565b90565b828054620002a390620003bb565b90600052602060002090601f016020900481019282620002c7576000855562000312565b82601f10620002e257805160ff191683800117855562000312565b8280016001018555821562000312579182015b8281111562000312578251825591602001919060010190620002f5565b506200032092915062000324565b5090565b5b8082111562000320576000815560010162000325565b600060208083528351808285015260005b818110156200036a578581018301518582016040015282016200034c565b818111156200037d576000604083870101525b50601f01601f1916929092016040019392505050565b80516020808301519190811015620003b5576000198160200360031b1b821691505b50919050565b600181811c90821680620003d057607f821691505b60208210811415620003b557634e487b7160e01b600052602260045260246000fd5b60805160a05160c05160e05161010051610120516101405161306b6200044d6000396000610823015260006107f801526000611d4401526000611d1c01526000611c7701526000611ca101526000611ccb015261306b6000f3fe608060405234801561001057600080fd5b506004361061018d5760003560e01c8063731133e9116100de578063c2558ffd11610097578063e985e9c511610071578063e985e9c51461037d578063f242432a146103b9578063f2fde38b146103cc578063f5298aca146103df57600080fd5b8063c2558ffd14610344578063d2b1d2c314610357578063d9097d321461036a57600080fd5b8063731133e9146102c05780638456cb59146102d357806384b0196e146102db5780638da5cb5b146102f6578063a22cb46514610311578063bd85b0391461032457600080fd5b80632eb2c2d61161014b5780634f558e79116101255780634f558e79146102715780635c975abb146102935780636b20c454146102a5578063715018a6146102b857600080fd5b80632eb2c2d6146102365780633f4ba83a146102495780634e1273f41461025157600080fd5b8062fdd58e1461019257806301ffc9a7146101b857806302fe5305146101db5780630e89341c146101f057806310f2f61d146102105780631f7fdffa14610223575b600080fd5b6101a56101a0366004612248565b6103f2565b6040519081526020015b60405180910390f35b6101cb6101c6366004612288565b61048b565b60405190151581526020016101af565b6101ee6101e9366004612361565b6104db565b005b6102036101fe36600461239d565b6104fa565b6040516101af919061240e565b6101ee61021e366004612421565b61052e565b6101ee61023136600461250b565b6105db565b6101ee6102443660046125a3565b6105ed565b6101ee610639565b61026461025f36600461264c565b61064b565b6040516101af9190612751565b6101cb61027f36600461239d565b600090815260066020526040902054151590565b600554600160a01b900460ff166101cb565b6101ee6102b3366004612764565b610774565b6101ee6107bc565b6101ee6102ce3660046127d7565b6107ce565b6101ee6107da565b6102e36107ea565b6040516101af979695949392919061282b565b6005546040516001600160a01b0390911681526020016101af565b6101ee61031f36600461289b565b610873565b6101a561033236600461239d565b60009081526006602052604090205490565b6101ee610352366004612361565b61087e565b6101cb6103653660046128d7565b610925565b6101ee6103783660046128d7565b610a27565b6101cb61038b366004612975565b6001600160a01b03918216600090815260016020908152604080832093909416825291909152205460ff1690565b6101ee6103c73660046129a8565b610b28565b6101ee6103da366004612a0c565b610b6d565b6101ee6103ed366004612a27565b610be6565b60006001600160a01b0383166104625760405162461bcd60e51b815260206004820152602a60248201527f455243313135353a2061646472657373207a65726f206973206e6f742061207660448201526930b634b21037bbb732b960b11b60648201526084015b60405180910390fd5b506000818152602081815260408083206001600160a01b03861684529091529020545b92915050565b60006001600160e01b03198216636cdb3d1360e11b14806104bc57506001600160e01b031982166303a24d0760e21b145b8061048557506301ffc9a760e01b6001600160e01b0319831614610485565b6104e3610c63565b80516104f6906007906020840190612193565b5050565b6060600761050783610cbd565b604051602001610518929190612ab1565b6040516020818303038152906040529050919050565b610536610d51565b604080516060810182528381526001600160a01b03831660208201526000818301529051819060089061056a908790612b82565b9081526040805191829003602090810190922083518155918301516001830180546001600160a01b039092166001600160a01b0319831681178255928501519290916001600160a81b03191617600160a01b8360028111156105ce576105ce612b6c565b0217905550505050505050565b6105e784848484610d9e565b50505050565b6001600160a01b0385163314806106095750610609853361038b565b6106255760405162461bcd60e51b815260040161045990612b9e565b6106328585858585610ef8565b5050505050565b610641610c63565b6106496110a2565b565b606081518351146106b05760405162461bcd60e51b815260206004820152602960248201527f455243313135353a206163636f756e747320616e6420696473206c656e677468604482015268040dad2e6dac2e8c6d60bb1b6064820152608401610459565b600083516001600160401b038111156106cb576106cb6122ac565b6040519080825280602002602001820160405280156106f4578160200160208202803683370190505b50905060005b845181101561076c5761073f85828151811061071857610718612bec565b602002602001015185838151811061073257610732612bec565b60200260200101516103f2565b82828151811061075157610751612bec565b602090810291909101015261076581612c18565b90506106fa565b509392505050565b6001600160a01b0383163314806107905750610790833361038b565b6107ac5760405162461bcd60e51b815260040161045990612b9e565b6107b78383836110f7565b505050565b6107c4610c63565b6106496000611293565b6105e7848484846112e5565b6107e2610c63565b6106496113ce565b60006060808280808361081e7f00000000000000000000000000000000000000000000000000000000000000006003611411565b6108497f00000000000000000000000000000000000000000000000000000000000000006004611411565b60408051600080825260208201909252600f60f81b9b939a50919850469750309650945092509050565b6104f63383836114b5565b610886610d51565b60006008826040516108989190612b82565b908152604051908190036020019020905060006001820154600160a01b900460ff1660028111156108cb576108cb612b6c565b1461090e5760405162461bcd60e51b815260206004820152601360248201527221b0b73737ba1031b0b731b2b61037b93232b960691b6044820152606401610459565b600101805460ff60a01b1916600160a11b17905550565b600080610a0284848080601f0160208091040260200160405190810160405280939291908181526020018383808284376000920191909152506109fc92507f9839a55ac0698409bdbef731ca3b75abf09c92f0057aa04df68a5b199589a2fb9150610995905060208a018a612a0c565b6109a260208b018b612c33565b6040516109b0929190612c79565b6040519081900381206109e19392916020019283526001600160a01b03919091166020830152604082015260600190565b60405160208183030381529060405280519060200120611596565b906115c3565b9050610a116020860186612a0c565b6001600160a01b03918216911614949350505050565b610a2f610d51565b60006008610a406020860186612c33565b604051610a4e929190612c79565b908152604051908190036020019020905060006001820154600160a01b900460ff166002811115610a8157610a81612b6c565b14610ac45760405162461bcd60e51b815260206004820152601360248201527221b0b73737ba103932b232b2b69037b93232b960691b6044820152606401610459565b610acf848484610925565b610b0f5760405162461bcd60e51b8152602060048201526011602482015270496e76616c6964207369676e617475726560781b6044820152606401610459565b600101805460ff60a01b1916600160a01b179055505050565b6001600160a01b038516331480610b445750610b44853361038b565b610b605760405162461bcd60e51b815260040161045990612b9e565b61063285858585856115df565b610b75610c63565b6001600160a01b038116610bda5760405162461bcd60e51b815260206004820152602660248201527f4f776e61626c653a206e6577206f776e657220697320746865207a65726f206160448201526564647265737360d01b6064820152608401610459565b610be381611293565b50565b6001600160a01b038316331480610c025750610c02833361038b565b610c1e5760405162461bcd60e51b815260040161045990612b9e565b6107b7838383611717565b6000602083511015610c4557610c3e8361182f565b9050610485565b82828151610c569260200190612193565b5060ff9050610485565b90565b6005546001600160a01b031633146106495760405162461bcd60e51b815260206004820181905260248201527f4f776e61626c653a2063616c6c6572206973206e6f7420746865206f776e65726044820152606401610459565b60606000610cca8361186d565b60010190506000816001600160401b03811115610ce957610ce96122ac565b6040519080825280601f01601f191660200182016040528015610d13576020820181803683370190505b5090508181016020015b600019016f181899199a1a9b1b9c1cb0b131b232b360811b600a86061a8153600a8504945084610d4c5761076c565b610d1d565b600554600160a01b900460ff16156106495760405162461bcd60e51b815260206004820152601060248201526f14185d5cd8589b194e881c185d5cd95960821b6044820152606401610459565b6001600160a01b038416610dc45760405162461bcd60e51b815260040161045990612c89565b8151835114610de55760405162461bcd60e51b815260040161045990612cca565b33610df581600087878787611945565b60005b8451811015610e9057838181518110610e1357610e13612bec565b6020026020010151600080878481518110610e3057610e30612bec565b602002602001015181526020019081526020016000206000886001600160a01b03166001600160a01b031681526020019081526020016000206000828254610e789190612d12565b90915550819050610e8881612c18565b915050610df8565b50846001600160a01b031660006001600160a01b0316826001600160a01b03167f4a39dc06d4c0dbc64b70af90fd698a233a518aa5d07e595d983b8c0526c8f7fb8787604051610ee1929190612d2a565b60405180910390a46106328160008787878761195b565b8151835114610f195760405162461bcd60e51b815260040161045990612cca565b6001600160a01b038416610f3f5760405162461bcd60e51b815260040161045990612d4f565b33610f4e818787878787611945565b60005b8451811015611034576000858281518110610f6e57610f6e612bec565b602002602001015190506000858381518110610f8c57610f8c612bec565b602090810291909101810151600084815280835260408082206001600160a01b038e168352909352919091205490915081811015610fdc5760405162461bcd60e51b815260040161045990612d94565b6000838152602081815260408083206001600160a01b038e8116855292528083208585039055908b16825281208054849290611019908490612d12565b925050819055505050508061102d90612c18565b9050610f51565b50846001600160a01b0316866001600160a01b0316826001600160a01b03167f4a39dc06d4c0dbc64b70af90fd698a233a518aa5d07e595d983b8c0526c8f7fb8787604051611084929190612d2a565b60405180910390a461109a81878787878761195b565b505050505050565b6110aa611ac6565b6005805460ff60a01b191690557f5db9ee0a495bf2e6ff9c91a7834c1ba4fdd244a5e8aa4e537bd38aeae4b073aa335b6040516001600160a01b03909116815260200160405180910390a1565b6001600160a01b03831661111d5760405162461bcd60e51b815260040161045990612dde565b805182511461113e5760405162461bcd60e51b815260040161045990612cca565b600033905061116181856000868660405180602001604052806000815250611945565b60005b835181101561122657600084828151811061118157611181612bec565b60200260200101519050600084838151811061119f5761119f612bec565b602090810291909101810151600084815280835260408082206001600160a01b038c1683529093529190912054909150818110156111ef5760405162461bcd60e51b815260040161045990612e21565b6000928352602083815260408085206001600160a01b038b168652909152909220910390558061121e81612c18565b915050611164565b5060006001600160a01b0316846001600160a01b0316826001600160a01b03167f4a39dc06d4c0dbc64b70af90fd698a233a518aa5d07e595d983b8c0526c8f7fb8686604051611277929190612d2a565b60405180910390a46040805160208101909152600090526105e7565b600580546001600160a01b038381166001600160a01b0319831681179093556040519116919082907f8be0079c531659141344cd1fd0a4f28419497f9722a3daafe3b4186f6b6457e090600090a35050565b6001600160a01b03841661130b5760405162461bcd60e51b815260040161045990612c89565b33600061131785611b16565b9050600061132485611b16565b905061133583600089858589611945565b6000868152602081815260408083206001600160a01b038b16845290915281208054879290611365908490612d12565b909155505060408051878152602081018790526001600160a01b03808a1692600092918716917fc3d58168c5ae7397731d063d5bbf3d657854427343f4c083240f7aacaa2d0f62910160405180910390a46113c583600089898989611b61565b50505050505050565b6113d6610d51565b6005805460ff60a01b1916600160a01b1790557f62e78cea01bee320cd4e420270b5ea74000d11b0c9f74754ebdbfc544b05a2586110da3390565b606060ff831461142457610c3e83611c2b565b81805461143090612a5a565b80601f016020809104026020016040519081016040528092919081815260200182805461145c90612a5a565b80156114a95780601f1061147e576101008083540402835291602001916114a9565b820191906000526020600020905b81548152906001019060200180831161148c57829003601f168201915b50505050509050610485565b816001600160a01b0316836001600160a01b031614156115295760405162461bcd60e51b815260206004820152602960248201527f455243313135353a2073657474696e6720617070726f76616c20737461747573604482015268103337b91039b2b63360b91b6064820152608401610459565b6001600160a01b03838116600081815260016020908152604080832094871680845294825291829020805460ff191686151590811790915591519182527f17307eab39ab6107e8899845ad3d59bd9653f200f220920489ca2b5937696c31910160405180910390a3505050565b60006104856115a3611c6a565b8360405161190160f01b8152600281019290925260228201526042902090565b60008060006115d28585611d9a565b9150915061076c81611de0565b6001600160a01b0384166116055760405162461bcd60e51b815260040161045990612d4f565b33600061161185611b16565b9050600061161e85611b16565b905061162e838989858589611945565b6000868152602081815260408083206001600160a01b038c1684529091529020548581101561166f5760405162461bcd60e51b815260040161045990612d94565b6000878152602081815260408083206001600160a01b038d8116855292528083208985039055908a168252812080548892906116ac908490612d12565b909155505060408051888152602081018890526001600160a01b03808b16928c821692918816917fc3d58168c5ae7397731d063d5bbf3d657854427343f4c083240f7aacaa2d0f62910160405180910390a461170c848a8a8a8a8a611b61565b505050505050505050565b6001600160a01b03831661173d5760405162461bcd60e51b815260040161045990612dde565b33600061174984611b16565b9050600061175684611b16565b905061177683876000858560405180602001604052806000815250611945565b6000858152602081815260408083206001600160a01b038a168452909152902054848110156117b75760405162461bcd60e51b815260040161045990612e21565b6000868152602081815260408083206001600160a01b038b81168086529184528285208a8703905582518b81529384018a90529092908816917fc3d58168c5ae7397731d063d5bbf3d657854427343f4c083240f7aacaa2d0f62910160405180910390a46040805160208101909152600090526113c5565b600080829050601f8151111561185a578260405163305a27a960e01b8152600401610459919061240e565b805161186582612e65565b179392505050565b60008072184f03e93ff9f4daa797ed6e38ed64bf6a1f0160401b83106118ac5772184f03e93ff9f4daa797ed6e38ed64bf6a1f0160401b830492506040015b6d04ee2d6d415b85acef810000000083106118d8576d04ee2d6d415b85acef8100000000830492506020015b662386f26fc1000083106118f657662386f26fc10000830492506010015b6305f5e100831061190e576305f5e100830492506008015b612710831061192257612710830492506004015b60648310611934576064830492506002015b600a83106104855760010192915050565b61194d610d51565b61109a868686868686611f2e565b6001600160a01b0384163b1561109a5760405163bc197c8160e01b81526001600160a01b0385169063bc197c819061199f9089908990889088908890600401612e89565b602060405180830381600087803b1580156119b957600080fd5b505af19250505080156119e9575060408051601f3d908101601f191682019092526119e691810190612ee7565b60015b611a96576119f5612f04565b806308c379a01415611a2f5750611a0a612f1f565b80611a155750611a31565b8060405162461bcd60e51b8152600401610459919061240e565b505b60405162461bcd60e51b815260206004820152603460248201527f455243313135353a207472616e7366657220746f206e6f6e2d455243313135356044820152732932b1b2b4bb32b91034b6b83632b6b2b73a32b960611b6064820152608401610459565b6001600160e01b0319811663bc197c8160e01b146113c55760405162461bcd60e51b815260040161045990612fa8565b600554600160a01b900460ff166106495760405162461bcd60e51b815260206004820152601460248201527314185d5cd8589b194e881b9bdd081c185d5cd95960621b6044820152606401610459565b60408051600180825281830190925260609160009190602080830190803683370190505090508281600081518110611b5057611b50612bec565b602090810291909101015292915050565b6001600160a01b0384163b1561109a5760405163f23a6e6160e01b81526001600160a01b0385169063f23a6e6190611ba59089908990889088908890600401612ff0565b602060405180830381600087803b158015611bbf57600080fd5b505af1925050508015611bef575060408051601f3d908101601f19168201909252611bec91810190612ee7565b60015b611bfb576119f5612f04565b6001600160e01b0319811663f23a6e6160e01b146113c55760405162461bcd60e51b815260040161045990612fa8565b60606000611c38836120a7565b604080516020808252818301909252919250600091906020820181803683375050509182525060208101929092525090565b6000306001600160a01b037f000000000000000000000000000000000000000000000000000000000000000016148015611cc357507f000000000000000000000000000000000000000000000000000000000000000046145b15611ced57507f000000000000000000000000000000000000000000000000000000000000000090565b611d95604080517f8b73c3c69bb8fe3d512ecc4cf759cc79239f7b179b0ffacaa9a75d522b39400f60208201527f0000000000000000000000000000000000000000000000000000000000000000918101919091527f000000000000000000000000000000000000000000000000000000000000000060608201524660808201523060a082015260009060c00160405160208183030381529060405280519060200120905090565b905090565b600080825160411415611dd15760208301516040840151606085015160001a611dc5878285856120cf565b94509450505050611dd9565b506000905060025b9250929050565b6000816004811115611df457611df4612b6c565b1415611dfd5750565b6001816004811115611e1157611e11612b6c565b1415611e5f5760405162461bcd60e51b815260206004820152601860248201527f45434453413a20696e76616c6964207369676e617475726500000000000000006044820152606401610459565b6002816004811115611e7357611e73612b6c565b1415611ec15760405162461bcd60e51b815260206004820152601f60248201527f45434453413a20696e76616c6964207369676e6174757265206c656e677468006044820152606401610459565b6003816004811115611ed557611ed5612b6c565b1415610be35760405162461bcd60e51b815260206004820152602260248201527f45434453413a20696e76616c6964207369676e6174757265202773272076616c604482015261756560f01b6064820152608401610459565b6001600160a01b038516611fb55760005b8351811015611fb357828181518110611f5a57611f5a612bec565b602002602001015160066000868481518110611f7857611f78612bec565b602002602001015181526020019081526020016000206000828254611f9d9190612d12565b90915550611fac905081612c18565b9050611f3f565b505b6001600160a01b03841661109a5760005b83518110156113c5576000848281518110611fe357611fe3612bec565b60200260200101519050600084838151811061200157612001612bec565b60200260200101519050600060066000848152602001908152602001600020549050818110156120845760405162461bcd60e51b815260206004820152602860248201527f455243313135353a206275726e20616d6f756e74206578636565647320746f74604482015267616c537570706c7960c01b6064820152608401610459565b600092835260066020526040909220910390556120a081612c18565b9050611fc6565b600060ff8216601f81111561048557604051632cd44ac360e21b815260040160405180910390fd5b6000807f7fffffffffffffffffffffffffffffff5d576e7357a4501ddfe92f46681b20a0831115612106575060009050600361218a565b6040805160008082526020820180845289905260ff881692820192909252606081018690526080810185905260019060a0016020604051602081039080840390855afa15801561215a573d6000803e3d6000fd5b5050604051601f1901519150506001600160a01b0381166121835760006001925092505061218a565b9150600090505b94509492505050565b82805461219f90612a5a565b90600052602060002090601f0160209004810192826121c15760008555612207565b82601f106121da57805160ff1916838001178555612207565b82800160010185558215612207579182015b828111156122075782518255916020019190600101906121ec565b50612213929150612217565b5090565b5b808211156122135760008155600101612218565b80356001600160a01b038116811461224357600080fd5b919050565b6000806040838503121561225b57600080fd5b6122648361222c565b946020939093013593505050565b6001600160e01b031981168114610be357600080fd5b60006020828403121561229a57600080fd5b81356122a581612272565b9392505050565b634e487b7160e01b600052604160045260246000fd5b601f8201601f191681016001600160401b03811182821017156122e7576122e76122ac565b6040525050565b600082601f8301126122ff57600080fd5b81356001600160401b03811115612318576123186122ac565b60405161232f601f8301601f1916602001826122c2565b81815284602083860101111561234457600080fd5b816020850160208301376000918101602001919091529392505050565b60006020828403121561237357600080fd5b81356001600160401b0381111561238957600080fd5b612395848285016122ee565b949350505050565b6000602082840312156123af57600080fd5b5035919050565b60005b838110156123d15781810151838201526020016123b9565b838111156105e75750506000910152565b600081518084526123fa8160208601602086016123b6565b601f01601f19169290920160200192915050565b6020815260006122a560208301846123e2565b60008060006060848603121561243657600080fd5b83356001600160401b0381111561244c57600080fd5b612458868287016122ee565b9350506020840135915061246e6040850161222c565b90509250925092565b60006001600160401b03821115612490576124906122ac565b5060051b60200190565b600082601f8301126124ab57600080fd5b813560206124b882612477565b6040516124c582826122c2565b83815260059390931b85018201928281019150868411156124e557600080fd5b8286015b8481101561250057803583529183019183016124e9565b509695505050505050565b6000806000806080858703121561252157600080fd5b61252a8561222c565b935060208501356001600160401b038082111561254657600080fd5b6125528883890161249a565b9450604087013591508082111561256857600080fd5b6125748883890161249a565b9350606087013591508082111561258a57600080fd5b50612597878288016122ee565b91505092959194509250565b600080600080600060a086880312156125bb57600080fd5b6125c48661222c565b94506125d26020870161222c565b935060408601356001600160401b03808211156125ee57600080fd5b6125fa89838a0161249a565b9450606088013591508082111561261057600080fd5b61261c89838a0161249a565b9350608088013591508082111561263257600080fd5b5061263f888289016122ee565b9150509295509295909350565b6000806040838503121561265f57600080fd5b82356001600160401b038082111561267657600080fd5b818501915085601f83011261268a57600080fd5b8135602061269782612477565b6040516126a482826122c2565b83815260059390931b85018201928281019150898411156126c457600080fd5b948201945b838610156126e9576126da8661222c565b825294820194908201906126c9565b965050860135925050808211156126ff57600080fd5b5061270c8582860161249a565b9150509250929050565b600081518084526020808501945080840160005b838110156127465781518752958201959082019060010161272a565b509495945050505050565b6020815260006122a56020830184612716565b60008060006060848603121561277957600080fd5b6127828461222c565b925060208401356001600160401b038082111561279e57600080fd5b6127aa8783880161249a565b935060408601359150808211156127c057600080fd5b506127cd8682870161249a565b9150509250925092565b600080600080608085870312156127ed57600080fd5b6127f68561222c565b9350602085013592506040850135915060608501356001600160401b0381111561281f57600080fd5b612597878288016122ee565b60ff60f81b8816815260e06020820152600061284a60e08301896123e2565b828103604084015261285c81896123e2565b606084018890526001600160a01b038716608085015260a0840186905283810360c0850152905061288d8185612716565b9a9950505050505050505050565b600080604083850312156128ae57600080fd5b6128b78361222c565b9150602083013580151581146128cc57600080fd5b809150509250929050565b6000806000604084860312156128ec57600080fd5b83356001600160401b038082111561290357600080fd5b908501906040828803121561291757600080fd5b9093506020850135908082111561292d57600080fd5b818601915086601f83011261294157600080fd5b81358181111561295057600080fd5b87602082850101111561296257600080fd5b6020830194508093505050509250925092565b6000806040838503121561298857600080fd5b6129918361222c565b915061299f6020840161222c565b90509250929050565b600080600080600060a086880312156129c057600080fd5b6129c98661222c565b94506129d76020870161222c565b9350604086013592506060860135915060808601356001600160401b03811115612a0057600080fd5b61263f888289016122ee565b600060208284031215612a1e57600080fd5b6122a58261222c565b600080600060608486031215612a3c57600080fd5b612a458461222c565b95602085013595506040909401359392505050565b600181811c90821680612a6e57607f821691505b60208210811415612a8f57634e487b7160e01b600052602260045260246000fd5b50919050565b60008151612aa78185602086016123b6565b9290920192915050565b600080845481600182811c915080831680612acd57607f831692505b6020808410821415612aed57634e487b7160e01b86526022600452602486fd5b818015612b015760018114612b1257612b3f565b60ff19861689528489019650612b3f565b60008b81526020902060005b86811015612b375781548b820152908501908301612b1e565b505084890196505b505050505050612b63612b528286612a95565b64173539b7b760d91b815260050190565b95945050505050565b634e487b7160e01b600052602160045260246000fd5b60008251612b948184602087016123b6565b9190910192915050565b6020808252602e908201527f455243313135353a2063616c6c6572206973206e6f7420746f6b656e206f776e60408201526d195c881bdc88185c1c1c9bdd995960921b606082015260800190565b634e487b7160e01b600052603260045260246000fd5b634e487b7160e01b600052601160045260246000fd5b6000600019821415612c2c57612c2c612c02565b5060010190565b6000808335601e19843603018112612c4a57600080fd5b8301803591506001600160401b03821115612c6457600080fd5b602001915036819003821315611dd957600080fd5b8183823760009101908152919050565b60208082526021908201527f455243313135353a206d696e7420746f20746865207a65726f206164647265736040820152607360f81b606082015260800190565b60208082526028908201527f455243313135353a2069647320616e6420616d6f756e7473206c656e677468206040820152670dad2e6dac2e8c6d60c31b606082015260800190565b60008219821115612d2557612d25612c02565b500190565b604081526000612d3d6040830185612716565b8281036020840152612b638185612716565b60208082526025908201527f455243313135353a207472616e7366657220746f20746865207a65726f206164604082015264647265737360d81b606082015260800190565b6020808252602a908201527f455243313135353a20696e73756666696369656e742062616c616e636520666f60408201526939103a3930b739b332b960b11b606082015260800190565b60208082526023908201527f455243313135353a206275726e2066726f6d20746865207a65726f206164647260408201526265737360e81b606082015260800190565b60208082526024908201527f455243313135353a206275726e20616d6f756e7420657863656564732062616c604082015263616e636560e01b606082015260800190565b80516020808301519190811015612a8f5760001960209190910360031b1b16919050565b6001600160a01b0386811682528516602082015260a060408201819052600090612eb590830186612716565b8281036060840152612ec78186612716565b90508281036080840152612edb81856123e2565b98975050505050505050565b600060208284031215612ef957600080fd5b81516122a581612272565b600060033d1115610c605760046000803e5060005160e01c90565b600060443d1015612f2d5790565b6040516003193d81016004833e81513d6001600160401b038160248401118184111715612f5c57505050505090565b8285019150815181811115612f745750505050505090565b843d8701016020828501011115612f8e5750505050505090565b612f9d602082860101876122c2565b509095945050505050565b60208082526028908201527f455243313135353a204552433131353552656365697665722072656a656374656040820152676420746f6b656e7360c01b606082015260800190565b6001600160a01b03868116825285166020820152604081018490526060810183905260a06080820181905260009061302a908301846123e2565b97965050505050505056fea264697066735822122098c9530007826d2078b99d8e1a12f4eba9257465097dbd6d30e2538cfcd9069664736f6c6343000809003368747470733a2f2f7261772e67697468756275736572636f6e74656e742e636f6d2f53747261697473582f4e46542d4d657461646174612f6d61696e2f6865726f4e4654323032335345502f",
  "devdoc": {
    "kind": "dev",
    "methods": {
      "balanceOf(address,uint256)": {
        "details": "See {IERC1155-balanceOf}. Requirements: - `account` cannot be the zero address."
      },
      "balanceOfBatch(address[],uint256[])": {
        "details": "See {IERC1155-balanceOfBatch}. Requirements: - `accounts` and `ids` must have the same length."
      },
      "eip712Domain()": {
        "details": "See {EIP-5267}. _Available since v4.9._"
      },
      "exists(uint256)": {
        "details": "Indicates whether any token exist with a given id, or not."
      },
      "isApprovedForAll(address,address)": {
        "details": "See {IERC1155-isApprovedForAll}."
      },
      "owner()": {
        "details": "Returns the address of the current owner."
      },
      "paused()": {
        "details": "Returns true if the contract is paused, and false otherwise."
      },
      "renounceOwnership()": {
        "details": "Leaves the contract without owner. It will not be possible to call `onlyOwner` functions. Can only be called by the current owner. NOTE: Renouncing ownership will leave the contract without an owner, thereby disabling any functionality that is only available to the owner."
      },
      "safeBatchTransferFrom(address,address,uint256[],uint256[],bytes)": {
        "details": "See {IERC1155-safeBatchTransferFrom}."
      },
      "safeTransferFrom(address,address,uint256,uint256,bytes)": {
        "details": "See {IERC1155-safeTransferFrom}."
      },
      "setApprovalForAll(address,bool)": {
        "details": "See {IERC1155-setApprovalForAll}."
      },
      "supportsInterface(bytes4)": {
        "details": "See {IERC165-supportsInterface}."
      },
      "totalSupply(uint256)": {
        "details": "Total amount of tokens in with a given id."
      },
      "transferOwnership(address)": {
        "details": "Transfers ownership of the contract to a new account (`newOwner`). Can only be called by the current owner."
      }
    },
    "version": 1
  },
  "userdoc": {
    "kind": "user",
    "methods": {},
    "version": 1
  },
  "storageLayout": {
    "storage": [
      {
        "astId": 271,
        "contract": "contracts/Escrow.sol:Escrow",
        "label": "_balances",
        "offset": 0,
        "slot": "0",
        "type": "t_mapping(t_uint256,t_mapping(t_address,t_uint256))"
      },
      {
        "astId": 277,
        "contract": "contracts/Escrow.sol:Escrow",
        "label": "_operatorApprovals",
        "offset": 0,
        "slot": "1",
        "type": "t_mapping(t_address,t_mapping(t_address,t_bool))"
      },
      {
        "astId": 279,
        "contract": "contracts/Escrow.sol:Escrow",
        "label": "_uri",
        "offset": 0,
        "slot": "2",
        "type": "t_string_storage"
      },
      {
        "astId": 3178,
        "contract": "contracts/Escrow.sol:Escrow",
        "label": "_nameFallback",
        "offset": 0,
        "slot": "3",
        "type": "t_string_storage"
      },
      {
        "astId": 3180,
        "contract": "contracts/Escrow.sol:Escrow",
        "label": "_versionFallback",
        "offset": 0,
        "slot": "4",
        "type": "t_string_storage"
      },
      {
        "astId": 7,
        "contract": "contracts/Escrow.sol:Escrow",
        "label": "_owner",
        "offset": 0,
        "slot": "5",
        "type": "t_address"
      },
      {
        "astId": 155,
        "contract": "contracts/Escrow.sol:Escrow",
        "label": "_paused",
        "offset": 20,
        "slot": "5",
        "type": "t_bool"
      },
      {
        "astId": 1710,
        "contract": "contracts/Escrow.sol:Escrow",
        "label": "_totalSupply",
        "offset": 0,
        "slot": "6",
        "type": "t_mapping(t_uint256,t_uint256)"
      },
      {
        "astId": 4396,
        "contract": "contracts/Escrow.sol:Escrow",
        "label": "baseURI",
        "offset": 0,
        "slot": "7",
        "type": "t_string_storage"
      },
      {
        "astId": 4447,
        "contract": "contracts/Escrow.sol:Escrow",
        "label": "orders",
        "offset": 0,
        "slot": "8",
        "type": "t_mapping(t_string_memory_ptr,t_struct(Order)4442_storage)"
      }
    ],
    "types": {
      "t_address": {
        "encoding": "inplace",
        "label": "address",
        "numberOfBytes": "20"
      },
      "t_bool": {
        "encoding": "inplace",
        "label": "bool",
        "numberOfBytes": "1"
      },
      "t_enum(OrderStatus)4434": {
        "encoding": "inplace",
        "label": "enum Escrow.OrderStatus",
        "numberOfBytes": "1"
      },
      "t_mapping(t_address,t_bool)": {
        "encoding": "mapping",
        "key": "t_address",
        "label": "mapping(address => bool)",
        "numberOfBytes": "32",
        "value": "t_bool"
      },
      "t_mapping(t_address,t_mapping(t_address,t_bool))": {
        "encoding": "mapping",
        "key": "t_address",
        "label": "mapping(address => mapping(address => bool))",
        "numberOfBytes": "32",
        "value": "t_mapping(t_address,t_bool)"
      },
      "t_mapping(t_address,t_uint256)": {
        "encoding": "mapping",
        "key": "t_address",
        "label": "mapping(address => uint256)",
        "numberOfBytes": "32",
        "value": "t_uint256"
      },
      "t_mapping(t_string_memory_ptr,t_struct(Order)4442_storage)": {
        "encoding": "mapping",
        "key": "t_string_memory_ptr",
        "label": "mapping(string => struct Escrow.Order)",
        "numberOfBytes": "32",
        "value": "t_struct(Order)4442_storage"
      },
      "t_mapping(t_uint256,t_mapping(t_address,t_uint256))": {
        "encoding": "mapping",
        "key": "t_uint256",
        "label": "mapping(uint256 => mapping(address => uint256))",
        "numberOfBytes": "32",
        "value": "t_mapping(t_address,t_uint256)"
      },
      "t_mapping(t_uint256,t_uint256)": {
        "encoding": "mapping",
        "key": "t_uint256",
        "label": "mapping(uint256 => uint256)",
        "numberOfBytes": "32",
        "value": "t_uint256"
      },
      "t_string_memory_ptr": {
        "encoding": "bytes",
        "label": "string",
        "numberOfBytes": "32"
      },
      "t_string_storage": {
        "encoding": "bytes",
        "label": "string",
        "numberOfBytes": "32"
      },
      "t_struct(Order)4442_storage": {
        "encoding": "inplace",
        "label": "struct Escrow.Order",
        "members": [
          {
            "astId": 4436,
            "contract": "contracts/Escrow.sol:Escrow",
            "label": "order_value",
            "offset": 0,
            "slot": "0",
            "type": "t_uint256"
          },
          {
            "astId": 4438,
            "contract": "contracts/Escrow.sol:Escrow",
            "label": "merchant_address",
            "offset": 0,
            "slot": "1",
            "type": "t_address"
          },
          {
            "astId": 4441,
            "contract": "contracts/Escrow.sol:Escrow",
            "label": "status",
            "offset": 20,
            "slot": "1",
            "type": "t_enum(OrderStatus)4434"
          }
        ],
        "numberOfBytes": "64"
      },
      "t_uint256": {
        "encoding": "inplace",
        "label": "uint256",
        "numberOfBytes": "32"
      }
    }
  }
}